:100000000C9463000C948B000C948B000C948B006C
:100010000C948B000C948B000C948B000C948B0034
:100020000C948B000C948B000C948B000C948B0024
:100030000C948B000C948B000C948B000C948B0014
:100040000C94460B0C948B000C94B60B0C94900BF8
:100050000C948B000C948B000C948B000C948B00F4
:100060000C94E80B0C948B00000000002400270087
:100070002A000000000023002600290000000000E4
:10008000250028002B0004040404040404040202D4
:100090000202020203030303030301020408102007
:1000A0004080010204081020010204081020000012
:1000B0000008000201000003040700000000000027
:1000C0000000070DD80E11241FBECFEFD8E0DEBF11
:1000D000CDBF23E0AEE8B1E001C01D92A331B2076D
:1000E000E1F711E0A0E0B1E0ECEEF5E202C005902E
:1000F0000D92AE38B107D9F710E0C2E6D0E004C0E7
:100100002197FE010E94E210C136D107C9F70E9473
:10011000540D0C94E9120C940000833081F028F403
:10012000813099F08230A9F008958730A9F08830A5
:10013000C9F08430B1F4809180008F7D03C080913C
:1001400080008F7780938000089584B58F7784BD79
:10015000089584B58F7DFBCF8091B0008F77809319
:10016000B00008958091B0008F7DF9CF1F93CF9399
:10017000DF93282F30E0F901E255FF4F8491F90118
:10018000E656FF4FD491F901EA57FF4FC491CC23B3
:10019000A9F0162F81110E948D00EC2FF0E0EE0FD8
:1001A000FF1FE458FF4FA591B4918FB7F894EC91DD
:1001B000111108C0D095DE23DC938FBFDF91CF9162
:1001C0001F910895DE2BF8CF3FB7F89480914E022F
:1001D00090914F02A0915002B091510226B5A89B78
:1001E00005C02F3F19F00196A11DB11D3FBFBA2FC9
:1001F000A92F982F8827BC01CD01620F711D811D89
:10020000911D42E0660F771F881F991F4A95D1F70D
:1002100008958F929F92AF92BF92CF92DF92EF920A
:10022000FF924B015C010E94E4006B017C010E9483
:10023000E4006C197D098E099F09683E73408105B1
:100240009105A8F321E0821A9108A108B10888EE6F
:10025000C80E83E0D81EE11CF11C81149104A10496
:10026000B10429F7FF90EF90DF90CF90BF90AF904F
:100270009F908F90089508950895FC012481358101
:100280006217730720F480819181009729F41092FE
:10029000400280E492E00895860F971F0895AF9280
:1002A000BF92CF92DF92EF92FF920F931F93CF9363
:1002B000DF936C017B018B01040F151FEB015E01C5
:1002C000AE18BF08C017D10759F06991D601ED915A
:1002D000FC910190F081E02DC6010995892B79F7F9
:1002E000C501DF91CF911F910F91FF90EF90DF90AB
:1002F000CF90BF90AF900895FC01538D448D252F72
:1003000030E0842F90E0821B930B541710F0CF96AF
:10031000089501970895FC01918D828D981761F0E1
:10032000A28DAE0FBF2FB11D5D968C91928D9F5FF8
:100330009F73928F90E008958FEF9FEF0895FC01D7
:10034000918D828D981731F0828DE80FF11D858D8A
:1003500090E008958FEF9FEF0895FC01918D228D1D
:10036000892F90E0805C9F4F821B91098F739927A2
:10037000089582E592E00E94AD0121E0892B09F405
:1003800020E0822F089580E090E0892B29F00E94E0
:10039000B90181110C9400000895FC01A48DA80FEF
:1003A000B92FB11DA35ABF4F2C91848D90E00196B7
:1003B0008F739927848FA689B7892C93A089B189D7
:1003C0008C91837080648C93938D848D981306C078
:1003D0000288F389E02D80818F7D80830895EF92DC
:1003E000FF920F931F93CF93DF93EC0181E0888FEF
:1003F0009B8D8C8D98131AC0E889F989808185FFBF
:1004000015C09FB7F894EE89FF896083E889F98960
:1004100080818370806480839FBF81E090E0DF9162
:10042000CF911F910F91FF90EF900895F62E0B8DB5
:1004300010E00F5F1F4F0F731127E02E8C8D8E1170
:100440000CC00FB607FCFACFE889F989808185FFD7
:10045000F5CFCE010E94CD01F1CFEB8DEC0FFD2F3A
:10046000F11DE35AFF4FF0829FB7F8940B8FEA8992
:10047000FB8980818062CFCFCF93DF93EC01888DA1
:100480008823B9F0AA89BB89E889F9898C9185FD0F
:1004900003C0808186FD0DC00FB607FCF7CF8C919D
:1004A00085FFF2CF808185FFEDCFCE010E94CD0187
:1004B000E9CFDF91CF9108952091F601260F3327E0
:1004C000331F21323105ECF420911A02FC0190E037
:1004D00080E0243069F082E00895A091F601219136
:1004E000AC014A525E4FA40FB52FB11D2C9301965B
:1004F000861798F38091F601680F6093F60180E00B
:10050000089581E0089510921A0281E080931C0200
:1005100010921B0261E082E10E94B60061E083E17B
:100520000E94B600E9EBF0E080818E7F80838081BD
:100530008D7F808388E48093B80085E48093BC003D
:100540000895CF93DF9391E09093D5018823B9F07C
:10055000C091B800D091BA008091BC008A7B809392
:10056000BC0060E082E10E94B60060E083E10E948E
:10057000B6000E948302D093BA00C093B800DF9106
:10058000CF9108950895E091480280914702E817BD
:1005900030F4F0E0E055FE4F808190E008958FEF59
:1005A0009FEF089590914802809147022FEF3FEF0F
:1005B000981748F4E92FF0E0E055FE4F208130E035
:1005C0009F5F90934802C9010895809147029091DE
:1005D0004802891B990B0895CF92DF92EF92FF9208
:1005E0000F931F93CF93DF937C01CB018A0120915E
:1005F000AF01222389F0EB016B01C40ED51ECC158F
:10060000DD0569F06991D701ED91FC910190F081D0
:10061000E02DC7010995F3CF642F0E945C02C80149
:10062000DF91CF911F910F91FF90EF90DF90CF90CE
:100630000895CF93DF931F92CDB7DEB769832091E2
:10064000AF012223F9F020914502203258F021E039
:1006500030E0FC013383228390E080E00F90DF9153
:10066000CF91089580914602E82FF0E0E157FE4FC8
:10067000998190838F5F809346028093450281E049
:1006800090E0ECCF61E0CE0101960E945C02F7CFD2
:10069000CF92DF92EF92FF920F931F93CF93DF934E
:1006A000FC01C48121E02093AF01C0938E01109220
:1006B0004602109245028385682B8FEE92E00E94DD
:1006C0001903D0914502D13208F092C00E94E40093
:1006D0006B017C0180911A02811165C082E08093D8
:1006E0001A0281E080931C028FEF8093190210920E
:1006F0003E02D0933D02AFE8B1E0EDE1F2E080E0F0
:10070000D81385C010923F0280913F02CC0FC82BB6
:10071000C0933F0280911B02813009F07CC010928F
:100720001B020E94E4006B017C0180913F028093D8
:10073000BB008091D1019091D201A091D301B091E1
:10074000D401892B8A2B8B2B99F00E94E400009115
:10075000D1011091D2012091D3013091D4016C19B3
:100760007D098E099F090617170728073907E0F149
:100770008091BC0083FDD9CF85EC8093BC000E94A2
:10078000E4006B017C0180911A02823009F445C0BB
:10079000809119028F3F61F180911902803241F1FD
:1007A0008091190225C08091D1019091D201A09130
:1007B000D301B091D401892B8A2B8B2B09F48ACFDA
:1007C0000E94E4000091D1011091D2012091D30147
:1007D0003091D4016C197D098E099F0906171707FE
:1007E0002807390708F076CF8091D0010E94A10236
:1007F00010924602109245021092AF01DF91CF9104
:100800001F910F91FF90EF90DF90CF9008959D91F1
:1008100091938F5F75CF85EEB0CF8091D10190918C
:10082000D201A091D301B091D401892B8A2B8B2BBB
:1008300009F4A9CF0E94E4000091D1011091D201E6
:100840002091D3013091D4016C197D098E099F0943
:10085000061717072807390708F095CFC5CF089561
:1008600090E080E00895FC012281338184819581AC
:100870002817390798F480819181D9011196B383A3
:10088000A283220F331F220F331F280F391FF901B4
:10089000408351836283738381E0089580E00895EB
:1008A000FC012281338121153105C1F04081518144
:1008B0002150310933832283220F331F220F331F2C
:1008C000240F351FF90180819181A281B381FB0141
:1008D00080839183A283B38381E0089580E00895AB
:1008E000FC01228133812115310571F04081518154
:1008F0002150310933832283240F351FF901808170
:10090000FB01808381E0089580E008950F931F9399
:10091000CF938C01C62F0E9448036C2F6460C801DE
:100920000E9448036C2F6B7FC8010E94480383EC30
:1009300090E00197F1F7CF911F910F9108950F93D8
:100940001F93CF93DF938C01D62FC42F607F642B2E
:100950000E94860480E1D89FB00111246C2BC8014D
:10096000DF91CF911F910F910C948604CF93DF9369
:10097000CDB7DEB728970FB6F894DEBF0FBECDBF58
:1009800098E0E6E0F1E0DE01119601900D929A9573
:10099000E1F790910903981708F48FEF90E0880F22
:1009A000991F21E030E02C0F3D1F820F931FFC01A7
:1009B0006081606840E081E093E028960FB6F8948B
:1009C000DEBF0FBECDBFDF91CF910C949F0441E0FD
:1009D0000E949F0481E090E00895FC018081918154
:1009E000009711F00C94841108950F931F93CF93E7
:1009F000DF93EC0188819981009759F02A813B812E
:100A00002617370730F081E0DF91CF911F910F91CA
:100A100008958B016F5F7F4F0E940D12009759F070
:100A2000998388831B830A832C813D81232B59F76B
:100A3000FC011082E8CF80E0E7CFEF92FF920F93A6
:100A40001F93CF93DF936115710541F480E0DF912F
:100A5000CF911F910F91FF90EF900895411551058F
:100A6000B1F07B01EC010C811D81040F151FB80151
:100A70000E94F504882351F3288139818C819D815E
:100A8000B701820F931F0E94D3121D830C8381E054
:100A9000DECFCF93DF9300D0CDB7DEB769831A8264
:100AA00041E050E0BE016F5F7F4F0E941D050F9037
:100AB0000F90DF91CF910895EF92FF920F931F93C4
:100AC000CF93DF93EC017B018A01BA010E94F50408
:100AD00028813981811114C02115310519F0C9010E
:100AE0000E948411198218821D821C821B821A8224
:100AF000CE01DF91CF911F910F91FF90EF9008955C
:100B00001D830C83B701C9010E94D312F1CFFB01F1
:100B100001900020E9F73197AF01461B570B0C9469
:100B20005C050F931F93CF93DF93CDB7DEB7A297EA
:100B30000FB6F894DEBF0FBECDBF8C01CB01BA015A
:100B4000F8011182108213821282158214822AE027
:100B5000AE014F5F5F4F0E94FC0FBE016F5F7F4F82
:100B6000C8010E948705A2960FB6F894DEBF0FBE9B
:100B7000CDBFDF91CF911F910F910895FB01DC0153
:100B800011961C921E9213961C921E921297159605
:100B90001C921E9214978617970749F06081718105
:100BA0006115710521F0448155810C945C0508950F
:100BB000EF92FF920F931F93CF93DF9300D000D05B
:100BC00000D0CDB7DEB77C018B01BC01CE01019610
:100BD0000E94BE05F8014481558160817181CE017A
:100BE00001960E941D0581110CC089819A81009790
:100BF00011F00E9484111A8219821E821D821C82A9
:100C00001B824D815E8169817A8182E592E00E943A
:100C10004F0142E050E06FE571E082E592E00E9412
:100C20004F01CE0101960E94ED0440E061E081E0B9
:100C300093E00E949F048BE39FE10197F1F780E02E
:100C40000E94B604F701448155816081718181E081
:100C500093E00E944F0181E00E94B604F8014481B4
:100C600055816081718181E093E00E944F01269659
:100C70000FB6F894DEBF0FBECDBFDF91CF911F91AD
:100C80000F91FF90EF900895FC0111821082138262
:100C9000128215821482FB0101900020E9F731973E
:100CA000AF01461B570B0C945C0585ED8093BC008F
:100CB0008091D1019091D201A091D301B091D40142
:100CC0000796A11DB11D23E0B695A7959795879529
:100CD0002A95D1F72091BC0024FD03C010921A027E
:100CE00008954091D1015091D2016091D30170914A
:100CF000D401452B462B472B69F30097A105B1057D
:100D000041F02AE22A95F1F700C00197A109B10943
:100D1000E1CF8091D0010C94A102CF92DF92EF92AB
:100D2000FF920F931F93CF93DF93EC0108851985F2
:100D30008C819D810817190751F480E0DF91CF91D4
:100D40001F910F91FF90EF90DF90CF9008956A016F
:100D50007B0186E090E00E94E810FC01158214827D
:100D6000009759F3C082D182E282F3820F5F1F4F56
:100D700028813981232B41F4998388839B838A833B
:100D80001987088781E0DACFEA81FB819583848324
:100D9000F5CFAF92BF92DF92EF92FF920F931F9326
:100DA000CF93DF93CDB7DEB72C970FB6F894DEBFA5
:100DB0000FBECDBF8C015B0161E671E00E9444066D
:100DC00061E671E0CE0107960E944406F501E080DD
:100DD000F180A480B580AE0CBF1CEA14FB0499F12D
:100DE000F701D1907F0180ED8D0D823030F46D2DB3
:100DF000CE0107960E944905F0CF8B859C85892BF3
:100E0000F9F042E050E070E060E08F8198850E9448
:100E1000DC0EAB01BC01CE0101960E9491054D8113
:100E20005E8169817A81C8010E941D05CE0101960B
:100E30000E94ED0461E671E0CE0107960E948705ED
:100E40006D2DC801D7CF8B859C85892BC9F042E0D9
:100E500050E070E060E08F8198850E94DC0EAB016D
:100E6000BC01CE0101960E9491054D815E81698190
:100E70007A81C8010E941D05CE0101960E94ED04F1
:100E8000CE0107960E94ED04C8012C960FB6F89487
:100E9000DEBF0FBECDBFDF91CF911F910F91FF90AD
:100EA000EF90DF90BF90AF9008954F925F926F9256
:100EB0007F928F929F92AF92BF92CF92DF92EF92EA
:100EC000FF920F931F93CF93DF93CDB7DEB7AA970F
:100ED0000FB6F894DEBF0FBECDBFCDB6DEB68234FE
:100EE000C1F58091FF0290910003009709F46AC157
:100EF0000197E091FB02F091FC02E80FF91F90933B
:100F000000038093FF0210826BEF72E0CE010B961C
:100F10000E94BE05BE01655F7F4FCE0141960E94D3
:100F2000C90666E871E0CE0101960E944406BE0142
:100F30006F5E7F4FCE0101960E94D805CE010196CB
:100F40000E94ED04CE0141960E94ED04CE010B9665
:100F500037C1833439F461E671E08BEF92E00E948F
:100F60008705D2CF883259F56091FF027091000356
:100F70006115710579F0615071098BEF92E00E9463
:100F80003D01FC018081803359F46AE28BEF92E0ED
:100F90000E94490568E28BEF92E00E944905B4CFB8
:100FA0006091FF0270910003615071098BEF92E034
:100FB0000E943D01FC018081813361F7E6CF682FFB
:100FC0008D3349F76BEF72E0CE014D960E94BE055E
:100FD000ADB6BEB6BE01635E7F4FCE0101960E94E4
:100FE000BE0570E060E0CE0101960E943D01FC016B
:100FF00080818B3211F410E0B0C070E060E0CE016F
:1010000001960E943D01FC0180818D32A1F370E0C8
:1010100060E0CE0101960E943D01FC0180818A3290
:1010200051F370E060E0CE0101960E943D01FC01A9
:1010300080818F3201F36D817E8161507109CE0113
:1010400001960E943D01FC0180818B32A1F26D81ED
:101050007E8161507109CE0101960E943D01FC0123
:1010600080818D3241F26D817E8161507109CE01A6
:1010700001960E943D01FC0180818A3209F4BBCFB8
:101080006D817E8161507109CE0101960E943D0102
:10109000FC0180818F3209F4AECFF12CE12C912C30
:1010A000812C8D819E81E816F90608F052C0B701A7
:1010B000CE0101960E943D01FC011081183251F4CD
:1010C000FFEF8F1A9F0AE114F10459F43FEFE31A7E
:1010D000F30AE7CF1932B9F701E0801A910898F7BF
:1010E0008ACFB70161507109CE0101960E943D017E
:1010F000FC018081982F9D7F9D3221F096ED980F05
:10110000923050F4912F9D7F9D3209F474CF96ED6B
:10111000910F923008F46FCF90ED980F923068F0F5
:10112000893271F4183209F466CF90ED910F923044
:1011300008F461CF1A3231F4C9CF183209F45BCF09
:101140001A3219F01F3209F0C1CF883209F0BECF30
:1011500052CF11E0892809F04ECFCE0101960E94AE
:10116000ED0411114BC062E671E0CE0101960E94C0
:1011700044060FB6F894BEBE0FBEADBECE014D966E
:101180000E94ED04BE016F5F7F4FCE0141960E9429
:10119000BE056DE771E0CE010B960E944406BE01CC
:1011A0006F5E7F4FCE010B960E94D805CE010B9645
:1011B0000E94ED04CE0141960E94ED04CE010196FD
:1011C0000E94ED040FB6F894DEBE0FBECDBEAA9607
:1011D0000FB6F894DEBF0FBECDBFDF91CF911F9148
:1011E0000F91FF90EF90DF90CF90BF90AF909F90C6
:1011F0008F907F906F905F904F900895BE01635ED7
:101200007F4FCE0101960E94BE05BE016F5F7F4FEA
:10121000CE0147960E94C906CE0101960E94ED04B8
:10122000EB8CFC8CC70101960DB71EB7081B190B80
:101230000FB6F8941EBF0FBE0DBF0F5F1F4F892B57
:1012400071F0F801E114F10449F06F89788DA7017C
:10125000C8010E94DA12F801EE0DFF1D10821A82F9
:1012600019821C821B821A8619868FEF9FEF98873E
:101270008F8380E490E09E838D831C8A1B8A9E8BE3
:101280008D8B0E94E8109A8B898BF12CE12CF80150
:10129000EE0DFF1D8080882009F4FBC028E2821239
:1012A0004EC091803BE2931619F08DE2981235C042
:1012B000E2E0EE0EF11CF801EE0DFF1D40E050E003
:1012C000BA01AAE0B0E09A01AB010E94721021912C
:1012D000022E000C330B205331092901330F66080D
:1012E0007708AB01BC01440D551D661D771D7F01BC
:1012F000E01AF10A808180538A3018F3FDE29F12D0
:1013000007C070956095509541955F4F6F4F7F4F27
:10131000CE0101960E948D0620C08B899C892D8963
:101320003E8982179307C8F4E989FA899C012F5FE7
:101330003F4F3C8B2B8BE80FF91F80820EC029E2B8
:1013400082122AC08B899C89BE01009751F46D5D81
:101350007F4FCE0141960E947004FFEFEF1AFF0A03
:1013600096CFE989FA89E80FF91F319780818BA31D
:10137000883269F3655F7F4FCE0141960E94700409
:101380004B85042E000C550B660B770B705CCE0161
:1013900001960E948D06D6CF3BE2831619F08DE2AE
:1013A00088122FC08B899C89009741F0E989FA89BE
:1013B000E80FF91F31972081283281F42D893E8969
:1013C0008217930750F629893A89AC014F5F5F4F26
:1013D0005C8B4B8B820F931FFC01AFCFBE01655F0F
:1013E0007F4FCE0141960E9470044B85042E000C65
:1013F000550B660B770B705CCE0101960E948D0633
:10140000D1CF2AE2821631F03FE240E050E0BA014B
:10141000831221C08B899C89009781F2E989FA891E
:10142000E80FF91F319720812A3211F02F3231F65F
:10143000BE01655F7F4FCE0141960E9470044B85CF
:10144000042E000C550B660B770B705CCE010196D9
:101450000E948D06DFCF7F01E01AF10AAAE0B0E01A
:101460009A01AB010E9472102191022E000C330BE5
:10147000205331092901330F66087708AB01BC01FD
:10148000440D551D661D771D808180538A3018F3E9
:101490003FCF8B899C89892B99F0BE01655F7F4F77
:1014A000CE0141960E9470044B85042E000C550B12
:1014B000660B770B705CCE0101960E948D06E9CF1A
:1014C0001E861D8680E490E0988B8F8780E091E0F7
:1014D0000E94E8109C878B8789819A81009709F484
:1014E000B1C029853A85232B09F4A8C0FC014080AE
:1014F000518062807380F1E04F1651046104F0E482
:101500007F060CF482C0142DBE01695D7F4FCE01B1
:101510000B960E945004BE016D5D7F4FCE010B966D
:101520000E9450042FA138A549A55AA51B3251F598
:101530008BA19CA1ADA1BEA1BA01A901480F591F61
:101540006A1F7B1FCE010B960E94330489859A8502
:10155000892B11F289819A81009709F4BDCFFC0192
:10156000248135813A8329830E94841189819A815B
:10157000892B11F41C821B8289859A8501979A8791
:101580008987AACF1D3269F48BA19CA1ADA1BEA110
:101590007C018D01E21AF30A040B150BB801A701B7
:1015A000D1CF1A3249F46BA17CA18DA19EA10E94DA
:1015B0004010AB01BC01C6CF2115310541055105D5
:1015C000D9F4412C512C612C80E8782E8B859C8598
:1015D000009711F00E94841189899A89009711F06F
:1015E0000E94841189819A810097C1F1FC012481B4
:1015F00035813A832983F4CF6BA17CA18DA19EA173
:101600000E94C310BA01A9019DCFFC01248135813C
:101610003A8329830E94841189819A81892B11F44C
:101620001C821B8289859A8501979A878987B301D5
:10163000A201CE010B960E9433044ECF412C512CB7
:101640003201F5CFBE016D5D7F4FCE010B960E943A
:1016500050044BA05CA06DA07EA0B8CF41145104F3
:101660006104F0E87F0659F469E671E0CE01019665
:101670000E944406CE0147960E94ED047ACDB30144
:10168000A201CE0101960E949105F4CF1F920F9204
:101690000FB60F9211242F933F938F939F93AF9385
:1016A000BF9380914A0290914B02A0914C02B0915D
:1016B0004D023091490223E0230F2D3758F5019652
:1016C000A11DB11D2093490280934A0290934B02C1
:1016D000A0934C02B0934D0280914E0290914F0224
:1016E000A0915002B09151020196A11DB11D8093AD
:1016F0004E0290934F02A0935002B0935102BF91BB
:10170000AF919F918F913F912F910F900FBE0F90AE
:101710001F90189526E8230F0296A11DB11DD2CF68
:101720001F920F920FB60F9211242F933F934F9356
:101730005F936F937F938F939F93AF93BF93EF9339
:10174000FF9382E592E00E94CD01FF91EF91BF915E
:10175000AF919F918F917F916F915F914F913F9149
:101760002F910F900FBE0F901F9018951F920F9200
:101770000FB60F9211242F938F939F93EF93FF93A4
:10178000E0916202F09163028081E0916802F09141
:10179000690282FD1BC0908180916B028F5F8F7305
:1017A00020916C02821741F0E0916B02F0E0EE5A5A
:1017B000FD4F958F80936B02FF91EF919F918F91D9
:1017C0002F910F900FBE0F901F9018958081F4CF2E
:1017D0001F920F920FB60F9211242F933F934F93A6
:1017E0005F936F937F938F939F93AF93BF93EF9389
:1017F000FF938091B900887F803609F44AC0F0F5E4
:10180000883209F4A7C018F5803109F49BC0B8F4F8
:10181000882309F4F9C0883009F494C0FF91EF914E
:10182000BF91AF919F918F917F916F915F914F91F8
:101830003F912F910F900FBE0F901F9018958831F8
:1018400009F488C0803251F78093190214C08034A3
:1018500009F49DC040F48033B9F38833F9F68093DE
:10186000190285ECB0C0803509F485C0883509F4CB
:1018700096C0883499F60E945506D0CF883909F46D
:101880008CC038F5883729F050F4883611F080374D
:1018900029F683E080931A021092180257C0883804
:1018A00009F47BC0803919F0803809F0B7CF8091F6
:1018B0001802803208F071C0E091180281E08E0FAA
:1018C000809318028091BB00F0E0E850FE4F8083C7
:1018D0003DC0803B39F0E0F4803A09F479C0883AA1
:1018E00009F09CCF84E080931A021092F7011092C5
:1018F000F601E0914302F091440209958091F601CE
:1019000081110FC081E08093F6011092D60109C0C9
:10191000803C09F4A6CF883C09F4A3CF883B09F0AA
:101920007DCFE091F70181E08E0F8093F701F0E029
:10193000EA52FE4F80818093BB009091F701809125
:10194000F60129C080913F028093BB0085EC809313
:10195000BC0064CF90913E0280913D02981758F5EB
:10196000E0913E0281E08E0F80933E02F0E0E35E64
:10197000FD4F8081E9CFE0913E0281E08E0F8093A0
:101980003E028091BB00F0E0E35EFD4F80839091CA
:101990003E0280913D029817C8F285E8D8CFE091C9
:1019A0003E0281E08E0F80933E028091BB00F0E00A
:1019B000E35EFD4F808380911C0281115CCF81E04A
:1019C00080931B0284EA8093BC0010921A0226CFF7
:1019D00085EC8093BC0010921A028091180280322C
:1019E00030F4E0911802F0E0E850FE4F1082609170
:1019F000180270E0E0914102F091420288EF91E01C
:101A00000995109218020ACF1092190234CFE2E51C
:101A1000F2E01382128288EE93E0A0E0B0E08483CB
:101A20009583A683B78323E331E03183208325ECBC
:101A300030E03587248724EC30E03787268720EC98
:101A400030E0318B208B21EC30E0338B228B22EC89
:101A500030E0358B248B26EC30E0378B268B118ED3
:101A6000128E138E148EEFEEF2E0138212828483B4
:101A70009583A683B78385E491E091838083E1E039
:101A8000F3E01382128287E591E09183808387E2FD
:101A9000848380E1818782E08287138661E671E03A
:101AA0008BEF92E00C944406789484B5826084BDF8
:101AB00084B5816084BD85B5826085BD85B5816052
:101AC00085BD80916E00816080936E0010928100D0
:101AD000809181008260809381008091810081608B
:101AE000809381008091800081608093800080914C
:101AF000B10084608093B1008091B00081608093D8
:101B0000B00080917A00846080937A0080917A009E
:101B1000826080937A0080917A00816080937A005D
:101B200080917A00806880937A001092C100E091E1
:101B30006202F091630282E08083E0915E02F091A4
:101B40005F021082E0916002F09161028FEC80836D
:101B500010926A02E0916602F091670286E080834B
:101B6000E0916402F0916502808180618083E09160
:101B70006402F0916502808188608083E091640254
:101B8000F0916502808180688083E0916402F09129
:101B9000650280818F7D80831092480210924702F7
:101BA00010924602109245020E9483028BE391E05C
:101BB00090934402809343028CE391E0909342021D
:101BC000809341021092060380910B03823018F03B
:101BD00098E0909306038093090362E370E080E04D
:101BE00090E00E94090160910C0381E093E00E9463
:101BF000480368EE73E080E090E00E94090160E332
:101C000081E093E00E948604CBE4D6E4CE01019704
:101C1000F1F760E381E093E00E9486042197F1F7F9
:101C200060E381E093E00E94860483E592E00197FF
:101C3000F1F760E281E093E00E9486046091060380
:101C4000606240E081E093E00E949F0484E0809322
:101C5000070340E06CE081E093E00E949F0440E0D5
:101C600061E081E093E00E949F04CBE3DFE1CE01DD
:101C70000197F1F782E08093080340E066E081E09D
:101C800093E00E949F0440E062E081E093E00E94C4
:101C90009F042197F1F788E080930C0360E081E0D6
:101CA00093E00E94480380E00E94B604C9E1D1E0BD
:101CB000899199919927FC01E656FF4F24918A5703
:101CC0009F4FFC0184918823C9F090E0880F991FF1
:101CD000FC01E859FF4F45915491FC01E458FF4F36
:101CE000A591B4919FB7F894FA013081822F809525
:101CF00083238083EC912E2B2C939FBFF1E0CF3276
:101D0000DF07B1F620E0C22E20E0D22E82E592E07D
:101D10000E94AD01181619063CF482E592E00E947B
:101D20008B0181110E9455079EE0E92E91E0F92E6A
:101D300009E111E0F801219131918F013327F90177
:101D4000E255FF4F8491F901E656FF4FB490F90137
:101D5000EA57FF4FA490A1101CC0F70180810E9498
:101D600055076CE271E080E090E00E940901FFEF0E
:101D7000EF1AFF0AC017D107E9F6C114D10409F41C
:101D8000C5CF0E94B901882309F4C0CF0E9400008A
:101D9000BDCF81110E948D00EA2DF0E0EE0FFF1FF4
:101DA000EE58FF4FA591B491EC91BE22B1F2DFCF76
:101DB0008BEF92E00C94ED04B0E0A0E0E2EEFEE0E8
:101DC0000C947E105C016B017A016115710519F0AC
:101DD000FB0191838083E114F10451F0C701029764
:101DE000839730F040E030E020E090E072C05E0188
:101DF000E5012196F5011081812F90E00E94F30FFB
:101E0000892BA9F71D3201F52196F501118101E019
:101E1000E114F10409F4DAC0F0E1EF16F10409F07D
:101E200082C0103359F488818F7D883509F076C0DF
:101E3000198122960260F0E1EF2EF12C812C912C79
:101E4000A12C88E0B82E8CC01B3221F4E50122962B
:101E5000F501118100E0DCCFEAE0EE16F10409F4AF
:101E6000BBC0F0E1EF16F10409F06DC0E7CF78E0F8
:101E7000E72EF12C812C912CA12C60E1B62E70C0A4
:101E80003FE9310F3A3128F439EA332E80C021E09E
:101E90009AC0302F3170C114D10431F0222309F1DE
:101EA0002197F601D183C08327FF21C060E070E055
:101EB00080E090E8311104C06FEF7FEF8FEF9FE774
:101EC00022E230E030930E0320930D03462F372F8C
:101ED000282F642F732F822FCDB7DEB7E1E10C944A
:101EE0009A1001FF04C02297F601D183C0833323E7
:101EF00041F090958095709561957F4F8F4F9F4FE2
:101F0000E5CF97FFE3CF82E290E090930E038093BA
:101F10000D036FEF7FEF8FEF9FE7D8CF10E3E11452
:101F2000F10409F4A4CF28E0E216F10409F4A2CFE9
:101F30000CF092CF812C912CA12CE0E4BE2E82E0FB
:101F4000E816F10469F060E070E080E090E8970145
:101F50000F2C000C440B550B0E94501049015A01E4
:101F600020E060E070E0CB0127010F2C000C660838
:101F70007708FE0150ED352E310E39E0331540F46F
:101F80003FEB310F3A3108F07BCF49EC342E310E64
:101F90003E141F040CF07DCF27FD15C08616970652
:101FA000A806B90678F0A30192010E944010630DC3
:101FB000711D811D911D61307105810520E8920719
:101FC00008F465CF2FEF21961081D3CF103309F499
:101FD0002ACF2AE0E22EF12C9CEC892E982CA82CFA
:101FE0009CE0B92EBDCF91110C942D10803219F0C8
:101FF00089508550C8F70895BB272A3051F499239A
:1020000042F4BDE290958095709561957F4F8F4F1A
:102010009F4F0C940C10BB27FA01A62F6217710575
:1020200081059105330B30FB66F0AA27660F771FF9
:10203000881F991FAA1FA21710F0A21B6395385082
:10204000A9F7A05DAA3308F0A95DA19336F7B111F5
:10205000B1931082CA010C943010992788270895F3
:10206000DC01FC01672F71917723E1F7329704C0FF
:102070007C916D9370836291AE17BF07C8F308958A
:10208000DB018F939F930E947210BF91AF91A29F2B
:10209000800D911DA39F900DB29F900D1124089566
:1020A000A1E21A2EAA1BBB1BFD010DC0AA1FBB1F5C
:1020B000EE1FFF1FA217B307E407F50720F0A21BCE
:1020C000B30BE40BF50B661F771F881F991F1A943B
:1020D00069F760957095809590959B01AC01BD0165
:1020E000CF0108950E94B410A59F900DB49F900D4C
:1020F000A49F800D911D112408952F923F924F921D
:102100005F926F927F928F929F92AF92BF92CF9287
:10211000DF92EF92FF920F931F93CF93DF93CDB790
:10212000DEB7CA1BDB0B0FB6F894DEBF0FBECDBF08
:1021300009942A88398848885F846E847D848C84D9
:102140009B84AA84B984C884DF80EE80FD800C81E2
:102150001B81AA81B981CE0FD11D0FB6F894DEBFC5
:102160000FBECDBFED010895A29FB001B39FC00186
:10217000A39F700D811D1124911DB29F700D811DB3
:102180001124911D0895052E97FB1EF400940E94C2
:10219000DA1057FD07D00E94501007FC03D04EF410
:1021A0000C94DA1050954095309521953F4F4F4F44
:1021B0005F4F089590958095709561957F4F8F4FF3
:1021C0009F4F0895EE0FFF1F0590F491E02D0994A5
:1021D0000F931F93CF93DF938230910510F482E029
:1021E00090E0E0911103F091120330E020E0B0E0C4
:1021F000A0E0309799F42115310509F44AC0281B55
:10220000390B24303105D8F58A819B816115710520
:1022100089F1FB0193838283FE0111C040815181CA
:102220000281138148175907E0F04817590799F4BC
:10223000109761F012960C93129713961C93329696
:10224000CF01DF91CF911F910F910895009311035A
:1022500010931203F4CF2115310551F042175307A3
:1022600038F0A901DB019A01BD01DF01F801C1CFFE
:10227000EF01F9CF9093120380931103CDCFFE01AC
:10228000E20FF31F81939193225031093983288300
:10229000D7CF20910F0330911003232B41F42091CD
:1022A0000201309103013093100320930F0320911A
:1022B0000001309101012115310541F42DB73EB7E0
:1022C0004091040150910501241B350BE0910F034F
:1022D000F0911003E217F307A0F42E1B3F0B281711
:1022E000390778F0AC014E5F5F4F2417350748F08F
:1022F0004E0F5F1F5093100340930F0381939193F0
:102300009FCFF0E0E0E09CCFCF93DF930097E9F020
:10231000FC01329713821282A0911103B091120333
:10232000ED0130E020E01097A1F420813181820F8F
:10233000931F20910F03309110032817390709F0DC
:1023400061C0F0931003E0930F03DF91CF910895E4
:10235000EA01CE17DF07E8F54A815B819E0141154E
:102360005105B1F7E901FB83EA8349915991C40F03
:10237000D51FEC17FD0761F4808191810296840FCF
:10238000951FE90199838883828193819B838A8346
:10239000F0E0E0E012968D919C9113970097B9F5CB
:1023A0002D913C911197CD010296820F931F2091A0
:1023B0000F03309110032817390739F6309751F57C
:1023C0001092120310921103B0931003A0930F0305
:1023D000BCCFD383C28340815181840F951FC8171E
:1023E000D90761F44E5F5F4F88819981480F591F6B
:1023F000518340838A819B81938382832115310598
:1024000009F0B0CFF0931203E09311039ECFFD01CA
:10241000DC01C0CF13821282D7CFB0E0A0E0E3E1AD
:10242000F2E10C947F108C01009751F4CB010E94D3
:10243000E8108C01C801CDB7DEB7E0E10C949B1029
:10244000FC01E60FF71F9C0122503109E217F30748
:1024500008F49DC0D901CD91DC911197C617D7071B
:1024600098F0C530D10530F3CE0104978617970751
:1024700008F3C61BD70B2297C193D1936D937C931E
:10248000CF010E948411D6CF5B01AC1ABD0A4C016A
:102490008C0E9D1EA0911103B0911203512C412C62
:1024A000F12CE12C109731F580910F0390911003DE
:1024B0008815990509F05CC04616570608F058C003
:1024C0008091000190910101009741F48DB79EB772
:1024D0004091040150910501841B950BE817F90701
:1024E00008F055C0F0931003E0930F03F9017183D6
:1024F0006083A0CF8D919C91119712966C9012974A
:1025000013967C901397A815B90559F56C0142E014
:10251000C40ED11CCA14DB0420F1AC014A195B09BA
:10252000DA011296159780F062827382518340839C
:10253000D9016D937C93E114F10471F0D7011396E6
:10254000FC93EE93129776CF22968C0F9D1FF90184
:1025500091838083F301EFCFF0931203E093110393
:1025600069CF4816590608F42C017D01D3019ACF92
:10257000CB010E94E8107C01009749F0AE01B80140
:102580000E94CA12C8010E948411870153CF10E033
:1025900000E050CFFB01DC0102C001900D924150E0
:1025A0005040D8F70895FB01DC0101900D92002006
:1025B000E1F70895FB01DC014150504048F00190E3
:1025C0000D920020C9F701C01D9241505040E0F724
:1025D000089510E0C2E6D0E004C0FE010E94E210BF
:0C25E0002196C336D107C9F7F894FFCF4D
:1025EC000000130380000000400014005400433D21
:1025FC00422F2A2D2B292830310100020003000420
:10260C0000050006000700080009000A000B000086
:10261C00000000EF014F017C013C02AD018B019FDA
:10262C0001000000001903EC023004C202E502D2E2
:10263C0002C30200000000E7044F0130042F040D18
:10264C000A004552524F5221002320446976697387
:10265C00696F6E206279205A65726F210052657322
:0E266C00756C743A2000496E7075743A200047
:00000001FF
